{
  "contractName": "Voting",
  "abi": [
    {
      "inputs": [],
      "stateMutability": "nonpayable",
      "type": "constructor"
    },
    {
      "anonymous": false,
      "inputs": [
        {
          "indexed": false,
          "internalType": "string",
          "name": "name",
          "type": "string"
        }
      ],
      "name": "newCandidate",
      "type": "event"
    },
    {
      "anonymous": false,
      "inputs": [
        {
          "indexed": false,
          "internalType": "string",
          "name": "name",
          "type": "string"
        },
        {
          "indexed": false,
          "internalType": "uint256",
          "name": "votes",
          "type": "uint256"
        }
      ],
      "name": "vote_added",
      "type": "event"
    },
    {
      "inputs": [
        {
          "internalType": "uint256",
          "name": "",
          "type": "uint256"
        }
      ],
      "name": "candidates",
      "outputs": [
        {
          "internalType": "string",
          "name": "name",
          "type": "string"
        },
        {
          "internalType": "uint256",
          "name": "votes",
          "type": "uint256"
        }
      ],
      "stateMutability": "view",
      "type": "function",
      "constant": true
    },
    {
      "inputs": [
        {
          "internalType": "address",
          "name": "",
          "type": "address"
        }
      ],
      "name": "mp",
      "outputs": [
        {
          "internalType": "bool",
          "name": "voted",
          "type": "bool"
        },
        {
          "internalType": "uint256",
          "name": "vote_number",
          "type": "uint256"
        }
      ],
      "stateMutability": "view",
      "type": "function",
      "constant": true
    },
    {
      "inputs": [],
      "name": "total_votes",
      "outputs": [
        {
          "internalType": "uint256",
          "name": "",
          "type": "uint256"
        }
      ],
      "stateMutability": "view",
      "type": "function",
      "constant": true
    },
    {
      "inputs": [
        {
          "internalType": "string",
          "name": "_name",
          "type": "string"
        }
      ],
      "name": "addCandidate",
      "outputs": [],
      "stateMutability": "nonpayable",
      "type": "function"
    },
    {
      "inputs": [],
      "name": "getall",
      "outputs": [
        {
          "components": [
            {
              "internalType": "string",
              "name": "name",
              "type": "string"
            },
            {
              "internalType": "uint256",
              "name": "votes",
              "type": "uint256"
            }
          ],
          "internalType": "struct Voting.candidate[]",
          "name": "",
          "type": "tuple[]"
        }
      ],
      "stateMutability": "view",
      "type": "function",
      "constant": true
    },
    {
      "inputs": [],
      "name": "isOwner",
      "outputs": [
        {
          "internalType": "bool",
          "name": "",
          "type": "bool"
        }
      ],
      "stateMutability": "view",
      "type": "function",
      "constant": true
    },
    {
      "inputs": [
        {
          "internalType": "address",
          "name": "_ad",
          "type": "address"
        }
      ],
      "name": "already_voted",
      "outputs": [
        {
          "internalType": "bool",
          "name": "",
          "type": "bool"
        }
      ],
      "stateMutability": "view",
      "type": "function",
      "constant": true
    },
    {
      "inputs": [
        {
          "internalType": "address",
          "name": "_ad",
          "type": "address"
        }
      ],
      "name": "voted_who",
      "outputs": [
        {
          "internalType": "string",
          "name": "",
          "type": "string"
        }
      ],
      "stateMutability": "view",
      "type": "function",
      "constant": true
    },
    {
      "inputs": [
        {
          "internalType": "uint256",
          "name": "_vote",
          "type": "uint256"
        }
      ],
      "name": "vote",
      "outputs": [],
      "stateMutability": "nonpayable",
      "type": "function"
    }
  ],
  "bytecode": "0x608060405234801561001057600080fd5b50336000806101000a81548173ffffffffffffffffffffffffffffffffffffffff021916908373ffffffffffffffffffffffffffffffffffffffff1602179055506000600381905550611295806100686000396000f3fe608060405234801561001057600080fd5b50600436106100935760003560e01c80636ede603d116100665780636ede603d146101325780638f32d59b14610150578063909747951461016e578063e4d1261f1461018c578063ff66b5d4146101bc57610093565b80630121b93f14610098578063106581aa146100b45780633477ee2e146100e5578063462e91ec14610116575b600080fd5b6100b260048036038101906100ad9190610abd565b6101ec565b005b6100ce60048036038101906100c99190610a47565b6103f9565b6040516100dc929190610d75565b60405180910390f35b6100ff60048036038101906100fa9190610abd565b61042a565b60405161010d929190610dc0565b60405180910390f35b610130600480360381019061012b9190610a74565b6104e6565b005b61013a610618565b6040516101479190610e80565b60405180910390f35b61015861061e565b6040516101659190610d5a565b60405180910390f35b610176610675565b6040516101839190610d38565b60405180910390f35b6101a660048036038101906101a19190610a47565b610770565b6040516101b39190610d5a565b60405180910390f35b6101d660048036038101906101d19190610a47565b6107c9565b6040516101e39190610d9e565b60405180910390f35b600160003373ffffffffffffffffffffffffffffffffffffffff1673ffffffffffffffffffffffffffffffffffffffff16815260200190815260200160002060000160009054906101000a900460ff161561027c576040517f08c379a000000000000000000000000000000000000000000000000000000000815260040161027390610e60565b60405180910390fd5b60018060003373ffffffffffffffffffffffffffffffffffffffff1673ffffffffffffffffffffffffffffffffffffffff16815260200190815260200160002060000160006101000a81548160ff02191690831515021790555080600160003373ffffffffffffffffffffffffffffffffffffffff1673ffffffffffffffffffffffffffffffffffffffff168152602001908152602001600020600101819055506001600282815481106103335761033261110d565b5b906000526020600020906002020160010160008282546103539190610f6c565b9250508190555060016003600082825461036d9190610f6c565b925050819055507f23e8ac95c467f11e6768d8736f897e81f29e1a76d641ada9c1b10458bf7ad876600282815481106103a9576103a861110d565b5b9060005260206000209060020201600001600283815481106103ce576103cd61110d565b5b9060005260206000209060020201600101546040516103ee929190610df0565b60405180910390a150565b60016020528060005260406000206000915090508060000160009054906101000a900460ff16908060010154905082565b6002818154811061043a57600080fd5b906000526020600020906002020160009150905080600001805461045d9061104c565b80601f01602080910402602001604051908101604052809291908181526020018280546104899061104c565b80156104d65780601f106104ab576101008083540402835291602001916104d6565b820191906000526020600020905b8154815290600101906020018083116104b957829003601f168201915b5050505050908060010154905082565b60008054906101000a900473ffffffffffffffffffffffffffffffffffffffff1673ffffffffffffffffffffffffffffffffffffffff163373ffffffffffffffffffffffffffffffffffffffff1614610574576040517f08c379a000000000000000000000000000000000000000000000000000000000815260040161056b90610e20565b60405180910390fd5b600260405180604001604052808381526020016000815250908060018154018082558091505060019003906000526020600020906002020160009091909190915060008201518160000190805190602001906105d192919061090a565b506020820151816001015550507fc970e891d1dad02a62578380f573f6f44e5fab96793363b8a807f619ecc048888160405161060d9190610d9e565b60405180910390a150565b60035481565b60008060009054906101000a900473ffffffffffffffffffffffffffffffffffffffff1673ffffffffffffffffffffffffffffffffffffffff163373ffffffffffffffffffffffffffffffffffffffff1614905090565b60606002805480602002602001604051908101604052809291908181526020016000905b8282101561076757838290600052602060002090600202016040518060400160405290816000820180546106cc9061104c565b80601f01602080910402602001604051908101604052809291908181526020018280546106f89061104c565b80156107455780601f1061071a57610100808354040283529160200191610745565b820191906000526020600020905b81548152906001019060200180831161072857829003601f168201915b5050505050815260200160018201548152505081526020019060010190610699565b50505050905090565b6000600160008373ffffffffffffffffffffffffffffffffffffffff1673ffffffffffffffffffffffffffffffffffffffff16815260200190815260200160002060000160009054906101000a900460ff169050919050565b60606107d482610770565b610813576040517f08c379a000000000000000000000000000000000000000000000000000000000815260040161080a90610e40565b60405180910390fd5b6002600160008473ffffffffffffffffffffffffffffffffffffffff1673ffffffffffffffffffffffffffffffffffffffff16815260200190815260200160002060010154815481106108695761086861110d565b5b906000526020600020906002020160000180546108859061104c565b80601f01602080910402602001604051908101604052809291908181526020018280546108b19061104c565b80156108fe5780601f106108d3576101008083540402835291602001916108fe565b820191906000526020600020905b8154815290600101906020018083116108e157829003601f168201915b50505050509050919050565b8280546109169061104c565b90600052602060002090601f016020900481019282610938576000855561097f565b82601f1061095157805160ff191683800117855561097f565b8280016001018555821561097f579182015b8281111561097e578251825591602001919060010190610963565b5b50905061098c9190610990565b5090565b5b808211156109a9576000816000905550600101610991565b5090565b60006109c06109bb84610ec0565b610e9b565b9050828152602081018484840111156109dc576109db611170565b5b6109e784828561100a565b509392505050565b6000813590506109fe81611231565b92915050565b600082601f830112610a1957610a1861116b565b5b8135610a298482602086016109ad565b91505092915050565b600081359050610a4181611248565b92915050565b600060208284031215610a5d57610a5c61117a565b5b6000610a6b848285016109ef565b91505092915050565b600060208284031215610a8a57610a8961117a565b5b600082013567ffffffffffffffff811115610aa857610aa7611175565b5b610ab484828501610a04565b91505092915050565b600060208284031215610ad357610ad261117a565b5b6000610ae184828501610a32565b91505092915050565b6000610af68383610cdd565b905092915050565b6000610b0982610f16565b610b138185610f39565b935083602082028501610b2585610ef1565b8060005b85811015610b615784840389528151610b428582610aea565b9450610b4d83610f2c565b925060208a01995050600181019050610b29565b50829750879550505050505092915050565b610b7c81610fd4565b82525050565b6000610b8d82610f21565b610b978185610f4a565b9350610ba7818560208601611019565b610bb08161117f565b840191505092915050565b6000610bc682610f21565b610bd08185610f5b565b9350610be0818560208601611019565b610be98161117f565b840191505092915050565b60008154610c018161104c565b610c0b8186610f5b565b94506001821660008114610c265760018114610c3857610c6b565b60ff1983168652602086019350610c6b565b610c4185610f01565b60005b83811015610c6357815481890152600182019150602081019050610c44565b808801955050505b50505092915050565b6000610c81601383610f5b565b9150610c8c82611190565b602082019050919050565b6000610ca4601283610f5b565b9150610caf826111b9565b602082019050919050565b6000610cc7603183610f5b565b9150610cd2826111e2565b604082019050919050565b60006040830160008301518482036000860152610cfa8282610b82565b9150506020830151610d0f6020860182610d1a565b508091505092915050565b610d2381611000565b82525050565b610d3281611000565b82525050565b60006020820190508181036000830152610d528184610afe565b905092915050565b6000602082019050610d6f6000830184610b73565b92915050565b6000604082019050610d8a6000830185610b73565b610d976020830184610d29565b9392505050565b60006020820190508181036000830152610db88184610bbb565b905092915050565b60006040820190508181036000830152610dda8185610bbb565b9050610de96020830184610d29565b9392505050565b60006040820190508181036000830152610e0a8185610bf4565b9050610e196020830184610d29565b9392505050565b60006020820190508181036000830152610e3981610c74565b9050919050565b60006020820190508181036000830152610e5981610c97565b9050919050565b60006020820190508181036000830152610e7981610cba565b9050919050565b6000602082019050610e956000830184610d29565b92915050565b6000610ea5610eb6565b9050610eb1828261107e565b919050565b6000604051905090565b600067ffffffffffffffff821115610edb57610eda61113c565b5b610ee48261117f565b9050602081019050919050565b6000819050602082019050919050565b60008190508160005260206000209050919050565b600081519050919050565b600081519050919050565b6000602082019050919050565b600082825260208201905092915050565b600082825260208201905092915050565b600082825260208201905092915050565b6000610f7782611000565b9150610f8283611000565b9250827fffffffffffffffffffffffffffffffffffffffffffffffffffffffffffffffff03821115610fb757610fb66110af565b5b828201905092915050565b6000610fcd82610fe0565b9050919050565b60008115159050919050565b600073ffffffffffffffffffffffffffffffffffffffff82169050919050565b6000819050919050565b82818337600083830152505050565b60005b8381101561103757808201518184015260208101905061101c565b83811115611046576000848401525b50505050565b6000600282049050600182168061106457607f821691505b60208210811415611078576110776110de565b5b50919050565b6110878261117f565b810181811067ffffffffffffffff821117156110a6576110a561113c565b5b80604052505050565b7f4e487b7100000000000000000000000000000000000000000000000000000000600052601160045260246000fd5b7f4e487b7100000000000000000000000000000000000000000000000000000000600052602260045260246000fd5b7f4e487b7100000000000000000000000000000000000000000000000000000000600052603260045260246000fd5b7f4e487b7100000000000000000000000000000000000000000000000000000000600052604160045260246000fd5b600080fd5b600080fd5b600080fd5b600080fd5b6000601f19601f8301169050919050565b7f596f7520617265206e6f7420616c6c6f77656400000000000000000000000000600082015250565b7f596f752068617665206e6f7420766f7465640000000000000000000000000000600082015250565b7f596f75206861766520616c726561647920766f7465642c43616e27742063686160008201527f6e6765206f7220766f746520616761696e000000000000000000000000000000602082015250565b61123a81610fc2565b811461124557600080fd5b50565b61125181611000565b811461125c57600080fd5b5056fea2646970667358221220a401836c1c7d55b8bf6441ae26cc211147ced6cad149f25aae1ebc0cc49e6eae64736f6c63430008070033",
  "immutableReferences": {},
  "source": "// SPDX-License-Identifier: MIT\npragma solidity 0.8.7;\n\nimport \"./Owned.sol\";\n\ncontract Voting is Owner{\n    \n    struct candidate{\n        string name;\n        uint votes;\n    }\n    \n    struct voter{\n        bool voted;\n        uint vote_number;\n    }\n    \n    event newCandidate(string name);\n    event vote_added(string name,uint votes);\n    \n    mapping (address=>voter) public mp;\n    \n    candidate[] public candidates;\n    \n    uint public total_votes;\n    \n    constructor(){\n        total_votes=0;\n    }\n    \n    function addCandidate(string memory _name) public only_owner{\n        candidates.push(candidate(_name,0));\n        emit newCandidate(_name);\n    }\n    \n    function getall() public view returns(candidate[] memory){\n        return candidates;\n    }\n    \n    function isOwner() public view returns(bool){\n        return (msg.sender==owner);\n    }\n\n    function already_voted(address _ad) public view returns(bool){\n        return mp[_ad].voted;\n    }\n\n    function voted_who(address _ad) public view returns(string memory){\n        require(already_voted(_ad),\"You have not voted\");\n        return candidates[mp[_ad].vote_number].name;\n    }\n\n    function vote(uint _vote) public{\n        require(!mp[msg.sender].voted,\"You have already voted,Can't change or vote again\");\n        mp[msg.sender].voted=true;\n        mp[msg.sender].vote_number=_vote;\n        candidates[_vote].votes+=1;\n        total_votes+=1;\n        emit vote_added(candidates[_vote].name,candidates[_vote].votes);\n    }\n    \n}",
  "sourcePath": "/home/vansh/Blockchain/voting/contracts/Voting.sol",
  "compiler": {
    "name": "solc",
    "version": "0.8.7+commit.e28d00a7.Emscripten.clang"
  },
  "schemaVersion": "3.4.3",
  "updatedAt": "2021-09-19T23:29:53.006Z",
  "networkType": "ethereum",
  "devdoc": {
    "kind": "dev",
    "methods": {},
    "version": 1
  },
  "userdoc": {
    "kind": "user",
    "methods": {},
    "version": 1
  }
}